{
  "_format": "hh-sol-artifact-1",
  "contractName": "ReputationRegistry",
  "sourceName": "contracts/ReputationRegistry.sol",
  "abi": [
    {
      "inputs": [
        {
          "internalType": "bytes32",
          "name": "paymentId",
          "type": "bytes32"
        }
      ],
      "name": "DuplicateRating",
      "type": "error"
    },
    {
      "inputs": [
        {
          "internalType": "uint8",
          "name": "score",
          "type": "uint8"
        }
      ],
      "name": "InvalidScore",
      "type": "error"
    },
    {
      "inputs": [],
      "name": "SelfRating",
      "type": "error"
    },
    {
      "inputs": [],
      "name": "ZeroAddress",
      "type": "error"
    },
    {
      "anonymous": false,
      "inputs": [
        {
          "indexed": true,
          "internalType": "address",
          "name": "provider",
          "type": "address"
        },
        {
          "indexed": true,
          "internalType": "address",
          "name": "rater",
          "type": "address"
        },
        {
          "indexed": false,
          "internalType": "uint8",
          "name": "score",
          "type": "uint8"
        },
        {
          "indexed": true,
          "internalType": "bytes32",
          "name": "paymentId",
          "type": "bytes32"
        },
        {
          "indexed": false,
          "internalType": "uint256",
          "name": "newTotalScore",
          "type": "uint256"
        },
        {
          "indexed": false,
          "internalType": "uint256",
          "name": "newRatingCount",
          "type": "uint256"
        }
      ],
      "name": "RatingSubmitted",
      "type": "event"
    },
    {
      "inputs": [
        {
          "internalType": "address",
          "name": "provider",
          "type": "address"
        }
      ],
      "name": "getReputation",
      "outputs": [
        {
          "internalType": "uint256",
          "name": "totalScore",
          "type": "uint256"
        },
        {
          "internalType": "uint256",
          "name": "ratingCount",
          "type": "uint256"
        },
        {
          "internalType": "uint256",
          "name": "averageScoreScaled",
          "type": "uint256"
        }
      ],
      "stateMutability": "view",
      "type": "function"
    },
    {
      "inputs": [
        {
          "internalType": "address",
          "name": "rater",
          "type": "address"
        },
        {
          "internalType": "address",
          "name": "provider",
          "type": "address"
        },
        {
          "internalType": "bytes32",
          "name": "paymentId",
          "type": "bytes32"
        }
      ],
      "name": "hasRated",
      "outputs": [
        {
          "internalType": "bool",
          "name": "",
          "type": "bool"
        }
      ],
      "stateMutability": "view",
      "type": "function"
    },
    {
      "inputs": [
        {
          "internalType": "address",
          "name": "provider",
          "type": "address"
        },
        {
          "internalType": "uint8",
          "name": "score",
          "type": "uint8"
        },
        {
          "internalType": "bytes32",
          "name": "paymentId",
          "type": "bytes32"
        }
      ],
      "name": "submitRating",
      "outputs": [],
      "stateMutability": "nonpayable",
      "type": "function"
    }
  ],
  "bytecode": "0x608060405234801561000f575f80fd5b506104928061001d5f395ff3fe608060405234801561000f575f80fd5b506004361061003f575f3560e01c8063615b06d21461004357806365458c00146100585780639c89a0e2146100da575b5f80fd5b61005661005136600461035f565b610108565b005b6100c56100663660046103a0565b604080516bffffffffffffffffffffffff19606095861b81166020808401919091529490951b909416603485015260488085019290925280518085039092018252606890930183528051908201205f9081526001909152205460ff1690565b60405190151581526020015b60405180910390f35b6100ed6100e83660046103d9565b6102f6565b604080519384526020840192909252908201526060016100d1565b6001600160a01b03831661012f5760405163d92e233d60e01b815260040160405180910390fd5b60018260ff161080610144575060058260ff16115b1561016c576040516306fae60560e11b815260ff831660048201526024015b60405180910390fd5b6001600160a01b03831633036101955760405163802b58f360e01b815260040160405180910390fd5b6040516bffffffffffffffffffffffff1933606090811b8216602084015285901b166034820152604881018290525f9060680160408051601f1981840301815291815281516020928301205f818152600190935291205490915060ff161561021357604051634890971d60e01b815260048101839052602401610163565b5f818152600160208181526040808420805460ff19169093179092556001600160a01b03871683528290528120805460ff8616929061025390849061040d565b90915550506001600160a01b0384165f908152602081905260408120600190810180549192909161028590849061040d565b90915550506001600160a01b0384165f81815260208181526040918290208054600190910154835160ff89168152928301919091528183015290518492339290917fa93b38f0a0fcdf9227711a52bfa7d750c9d45d2b42a4f13f90c62de25a2b01a39181900360600190a450505050565b6001600160a01b0381165f90815260208190526040812080546001820154909290918215610339578261032a856064610426565b610334919061043d565b61033b565b5f5b93959294505050565b80356001600160a01b038116811461035a575f80fd5b919050565b5f805f60608486031215610371575f80fd5b61037a84610344565b9250602084013560ff8116811461038f575f80fd5b929592945050506040919091013590565b5f805f606084860312156103b2575f80fd5b6103bb84610344565b92506103c960208501610344565b9150604084013590509250925092565b5f602082840312156103e9575f80fd5b6103f282610344565b9392505050565b634e487b7160e01b5f52601160045260245ffd5b80820180821115610420576104206103f9565b92915050565b8082028115828204841417610420576104206103f9565b5f8261045757634e487b7160e01b5f52601260045260245ffd5b50049056fea26469706673582212202cc7cd0327cd6bc074ceac476e3f30c8b39eeba72831eb1c6691821c51808fd364736f6c63430008180033",
  "linkReferences": {},
  "deployedLinkReferences": {}
}